:100000000C9404020C9421020C9421020C947F1E87
:100010000C9421020C9421020C9421020C942102D4
:100020000C9421020C9421020C94C70E0C94830EA4
:100030000C940E190C9421020C9421020C942102B0
:100040000C9421020C9421020C9421020C942102A4
:100050000C9421020C94A00F0C9421020C94210208
:100060000C9421020C9421020C9421020C94210284
:100070000C9421020C9421020C9421020C94210274
:100080000C9421020C9421020C9421020C94210264
:100090000C9421020C9421020C9421020C94210254
:1000A0000C9421020C9421020C94210229001E00C0
:1000B0001F002000210022002B0014001A0008005D
:1000C00015001700E00004001600070009000A00F0
:1000D000E1001D001B000600190005000000E20001
:1000E000E30001512C002F003500270026002500D9
:1000F000240023002D00130012000C0018001C0027
:10010000340033000F000E000D000B00E500380036
:1001100037003600100011000000E6002A000251EE
:100120002800300001000100010001000100010071
:100130000100010001000100010001003A003B0044
:100140003C003D003E003F004000410042004300B3
:100150004400450000000100010001000100010011
:100160000100010001000100010001000100010087
:1001700001000100010001003502270226022502CC
:1001800024022302310230022F022E022D0200002F
:10019000000001004C00010001000100010001000D
:1001A000010001000100010035001E001F002000B9
:1001B00021002200010001000100010001000100F6
:1001C0000100010001000100010001000000010028
:1001D0000100010001000100010001000100010017
:1001E0000100010001002700260025002400230053
:1001F000000000004F00520051005000310030005C
:100200002F002E002D002E02000001004C000100E6
:1002100001000100000000000000000000000000DC
:1002200000000000000000000000000000000000CE
:1002300000000000000000000000000000000000BE
:10024000000000000000010001000100010080002A
:10025000000000000000000000000000000000009E
:10026000000000000000000000000000000000008E
:10027000000000000000000000000000000000007E
:1002800000000100010001000100810000DA02818C
:10029000FFD9F1DB20A4A62EAF00A0C000A1C800AA
:1002A000AED580A81FD300408D14200000AF00AE53
:1002B00005010980A101850319012AB7001501264E
:1002C000B700950175108100C0050C0901A10185D9
:1002D0000419012AA002150126A0029501751081BA
:1002E00000C005010906A1018506050719E029E7F7
:1002F000150025019508750181020507190029EFF0
:100300001500250195F075018102050819012905DF
:10031000950575019102950175039101C0050109CB
:1003200006A101050719E029E715002501950875C3
:100330000181029501750881010507190029FF1542
:100340000026FF009506750881000508190129059A
:10035000950575019102950175039101C009023B54
:1003600000020100A0FA09040000010301010009D4
:100370002111010001224000070581030800010945
:100380000401000103000000092111010001226D98
:10039000000705820320000112010002000000088E
:1003A000D8042DEB00010102000146034600720053
:1003B00061006E00640069006500670075006500FB
:1003C0007A0020004800610063006B006500640053
:1003D00020004C0069006C007900350038002000D6
:1003E0004B006500790062006F00610072006400DC
:1003F000000010036C0069006C00690075006D005E
:10040000730000000403090411241FBECFEFDAE0DB
:10041000DEBFCDBF11E0A0E0B1E0E6EAF1E402C04A
:1004200005900D92A437B107D9F725E0A4E7B1E014
:1004300001C01D92A931B207E1F70E9435190C9451
:10044000BB200C940000FC01AC014B5F5F4F8FEFB1
:1004500091E32191822728E030E087FF09C0880FCF
:10046000892721503109C9F7E417F50791F7089555
:10047000880FF7CFE8EDF0E080818E7F80831092C7
:10048000E2001092DA001092E100A0EEB0E08C9150
:1004900081608C9380818F77808319BCA7EDB0E059
:1004A0008C918E7F8C9380818F7E80831092E70465
:1004B00008952091E4003091E50095E6A90120918E
:1004C000EC00822F817020FF06C08091E80080FF41
:1004D00006C080E008952091E80022FD1AC08091B6
:1004E0000C05882389F0853089F08091EB0085FD2B
:1004F0000FC02091E4003091E50042175307F9F254
:100500009150E1F684E0089582E0089583E0089533
:1005100081E00895EF92FF920F931F93CF937C0198
:100520008B010E945902C82F811117C08091E800E9
:1005300085FD0BC08091E8008E778093E8000E94D3
:100540005902882399F3C82F08C0F70181917F01D0
:100550008093F1000150110949F78C2FCF911F9121
:100560000F91FF90EF90089580910E0587FF13C0C3
:100570008091E80082FF06C08091E8008B7780932D
:10058000E80004C080910C058111F2CF089580919C
:100590000C058823D9F38091E80080FFF8CF809183
:1005A000E8008E77ECCF982F9093E900242F762FD8
:1005B00050E0891731F07091EC002091ED005091DE
:1005C000F00021FD07C09F5F973071F78093E9002D
:1005D00081E008953091EB003E7F3093EB00309145
:1005E000ED003D7F3093ED003091EB0031603093B2
:1005F000EB007093EC002093ED005093F0002091FD
:10060000EE0027FDE0CF80E00895B0E0A0E0EBE051
:10061000F3E00C94B91FC8EDD0E088818F7E888309
:10062000E7EDF0E080818160808384E082BF81E03B
:100630008093E70488818E7F888302EE10E0F801C2
:1006400010821092DA0081EEC82ED12CF6011082B1
:1006500088818F77888388818068888388818F7D6F
:10066000888319BC10920C0510920D0510920B0591
:1006700010920A0590EEE92EF12CF70180818B7F14
:10068000808388818160888342E060E080E00E940E
:10069000D302F60180818E7F8083F80180818160A2
:1006A0008083808188608083F70180818E7F808352
:1006B000888180618883CDB7DEB7E8E00C94D51FD0
:1006C000FC01809114059091150586179707A0F0FD
:1006D0006115710529F49091E8009E779093E800E8
:1006E00090E06115710551F4911108C08091E80006
:1006F00082FF34C080E00895BC01F2CF80910C05E8
:100700008823C1F18530C1F18091E80083FD30C0BC
:100710008091E80082FDEACF8091E80080FFE1CF80
:100720008091F3002091F200382F6115710519F0C6
:100730002830310558F091E02830310509F090E07B
:100740002091E8002E772093E800CBCF8191809311
:10075000F100615071092F5F3F4FE7CF80910C0589
:10076000882341F0853041F08091E80083FFBECFBF
:1007700081E0089582E0089583E008950895089542
:100780008091E90408952FB7F8946091DE04709188
:10079000DF048091E0049091E1042FBF089520913F
:1007A0002D012223C9F02091E20427FF15C0E62F76
:1007B000E695E695E695EE31D8F4E80FF92FF11DB0
:1007C000677021E030E001C0220F6A95EAF72095BA
:1007D0008281282322830895FC0132960896219174
:1007E000621303C0DF0111971C92E817F907B9F7EC
:1007F000089520912D012223C1F02091E20427FFCA
:1008000014C0E62FE695E695E695EE31F8F4E80F8C
:10081000F92FF11D677021E030E001C0220F6A95C9
:10082000EAF78281822B82830895FC0132962FEFB2
:1008300030E04191641751F02F3F19F4411101C08C
:10084000232F3F5F3630A9F72F3F09F40895820F19
:10085000911D27FD9A95FC01628308952091DB0488
:100860003091DC042817390771F09093DC048093F1
:10087000DB04E091D904F091DA04309721F0008490
:10088000F185E02D099508952091D7043091D80481
:100890002817390771F09093D8048093D704E0911A
:1008A000D904F091DA04309721F00680F781E02D29
:1008B0000995089580E00895F894E82FE295EF7087
:1008C000F0E031A1282F2F7081E090E001C0880F67
:1008D0002A95EAF7982F9095932391A392A1892BBB
:1008E00082A3789408959091E20492FF06C0282F85
:1008F00028712830F9F4877F846093FF06C0282F81
:1009000028712831F1F4877E84612091E30420FF6F
:1009100006C0382F38713830D9F4877F816021FFC5
:1009200006C0282F28712831D1F4877E816194FD7B
:10093000877E0895282F24712430F9F68B7F8860F4
:10094000DCCF282F2471243101F78B7E8861DDCF25
:10095000382F3171313019F78E7F8860E0CF282F22
:100960002171213121F78E7E8861E1CF972F7A3076
:10097000A8F4663098F470E026E0929F600D711D37
:100980001124FB019CE3899FE00DF11D1124EE0F62
:10099000FF1FE455FF4F85919491089580E090E00A
:1009A0000895CF93DF93EC0182389105A9F1D8F532
:1009B0008133910509F496C048F58932910509F40F
:1009C0008AC08A9709F495C0C11522E5D20708F0BC
:1009D000B6C0C11531E5D30708F026C1C83ED10520
:1009E00008F09CC0C03ED10560F5C83AD10508F0BA
:1009F00087C0C53AD10508F0EFC0C130D10509F173
:100A00002097F9F0C430D105E0F440C0853391055A
:100A100009F45AC0C997C1F68091E204837089F045
:100A2000C0EED0E00EC0833E910599F170F4803E97
:100A3000910501F1823E910539F68091E20482FD33
:100A400021C0CE01DF91CF910895863E910561F1DD
:100A5000873E910571F1843E910509F0B5CF8091F3
:100A6000E30481FFEECF8091E204C7EED0E084FD85
:100A70000DC0E7CF8091E20480FD07C19091E304AF
:100A800090FFDFCFC3EED0E084FFDBCFD0E0C0E04B
:100A9000D8CF8091E20482FDFBC09091E30490FDE9
:100AA000BFCF84FFCECFF2CF8091E20483FDDDCFB4
:100AB000C8CF8091E20483FDEEC09091E30491FFE2
:100AC000F0CFC4EED0E0BDCF8091E20485FFB9CF76
:100AD000C9E2D0E0B6CF8091E20485FFB2CFC5E392
:100AE000D0E0AFCF8091E20486FFABCFCAE2D0E086
:100AF000A8CF8091E20486FFA4CFC1E3D0E0A1CFCC
:100B0000CF3BD10518F6C85AD0E0CC0FDD1FCF5C23
:100B1000DE4F0990D881C02DD46493CFC11540E534
:100B2000D40708F064C0C11580E4D80708F05CC0A1
:100B3000CE019A9581159F4108F483CFA7CFC115A7
:100B400036E5D30718F5C11545E5D40708F084C08C
:100B5000C11584E5D80708F07AC09C2F9695969524
:100B60009E0123703327C115D34508F462C0C1E04C
:100B7000D0E002C0CC0FDD1F2A95E2F730E2939F50
:100B8000C0011124C82BD92BDA685BCFC1158AE5C7
:100B9000D80778F4C11599E5D90708F068C0C115E0
:100BA00028E5D20708F472CFDC2FCC27C06FD06ABB
:100BB00048CFCE0190568115904208F067CF8D2F17
:100BC0008F710E94730490E0982F882788279F7167
:100BD0009C012C2BE90149C0C55AD0E0C25DDE4F13
:100BE000C881D0E0D0642DCFDF70D06A2ACFCE018B
:100BF000E4E096958795EA95E1F783702C2F26958A
:100C00002695237040E2249F90011124382B8C2FCD
:100C10008370C1E0D0E002C0CC0FDD1F8A95E2F7FF
:100C2000C22BD32BDC680DCFDC2FCC27C16FD06A51
:100C300008CFC1E0D0E002C0CC0FDD1F2A95E2F75B
:100C400020E2929FC0011124C82BD92BEBCFDC2FBF
:100C5000CC27C46FD06AF5CE8C2F0E947304C82FA6
:100C6000D0E0DC2FCC27CC27DF71D062EACE8C2FEE
:100C70008F700E94730434E0D695C7953A95E1F7DA
:100C8000CF709C2FEC01D069DCCEC9E3D0E0D9CE87
:100C9000C2EED0E0D6CEC6EED0E0D3CE80911A021E
:100CA000811110921A02089580959091190298234B
:100CB0009093190208958091F6019091C5019813BF
:100CC00001C008958F5F8770FACFB0E0A0E0EBE637
:100CD000F6E00C94B81F8C01C0905202D0905302E1
:100CE000E0905402F090550280911B0290911C02FA
:100CF000A0911D02B0911E02C82AD92AEA2AFB2A15
:100D0000CFE1D0E0BC2ED701C6010C2E04C0B695B1
:100D1000A795979587950A94D2F780FD09C02197EA
:100D200088F7B12C8B2DCDB7DEB7E9E00C94D41F3A
:100D3000B8018C2F0E94B6040E94D104019779F368
:100D4000F1CFCF93DF93EC010E946506BE010E94B4
:100D5000B6040E94D104DF91CF910895292F9A30D3
:100D600080F5863070F590E036E0239F800D911D70
:100D70001124682F677023E0969587952A95E1F7EF
:100D800025E0289FF001299FF00D1124E956FE4F20
:100D900050E040E080E0219130E0062E02C0369520
:100DA00027950A94E2F721703327042E01C0220F01
:100DB0000A94EAF7822B4F5F5F4F4530510559F790
:100DC000089580E00895292F9A30A0F5863090F597
:100DD00090E036E0239F800D911D1124282F27706D
:100DE00041E001C0440F2A95EAF723E096958795E4
:100DF0002A95E1F725E0289FF001299FF00D1124A5
:100E0000E956FE4F30E020E070E05191DF0111978C
:100E1000CB01022E02C0969587950A94E2F7817065
:100E200081958527842385278C932F5F3F4F25301D
:100E3000310559F70895FC01808191810E94A10636
:100E400092959F70963091F058F4925F9F70923017
:100E500058F4803F19F030F4883E30F481E0089572
:100E60009A5FF4CF843FD1F380E00895883EB0F3D9
:100E7000813FD1F7F3CF8093E4047093E60460934D
:100E8000E50480910C05843001F582E08093E9004F
:100E90008FEF9091E800815095FD06C095ED9A95F1
:100EA000F1F700008111F5CF8091E80085FF0DC0BA
:100EB00050E040E063E070E084EE94E00E948A023B
:100EC0008091E8008E778093E8000895BC0184E06B
:100ED0000E943B070895BC0183E00E943B070895F0
:100EE000CF93DF93EC0180912D018823B1F18091A4
:100EF000E20487FF32C060E282E08093E9008FEF76
:100F00009091E800815095FD06C095ED9A95F1F716
:100F100000008111F5CF8091E80085FF1BC0809112
:100F20002D0170E050E040E0811104C050E040E04D
:100F300068E070E0CE010E948A028091E8008E771E
:100F40008093E80080E2FE01AAEEB4E001900D92E9
:100F50008A95E1F7DF91CF91089568E081E0CDCFE8
:100F6000B0E0A0E0E6EBF7E00C94B71F7C015B017A
:100F70006A018091410201E010E08A3010F40AE039
:100F800010E0C1E0D0E0B501C701F601099581117B
:100F900004C021960C171D072CF4CDB7DEB7EAE08C
:100FA0000C94D31FCC9F9001CD9F300D300D112498
:100FB00090E080E045E34A95F1F700000196821742
:100FC0009307C1F7E0CF80912902811110C0809171
:100FD000D80080618093D8008AE18A95F1F700C03B
:100FE0008091D90080FF0AC081E08093290281E0CE
:100FF00090912902913009F080E0089582E0809379
:1010000029020E943A0210920C05F1CF0E94E307D8
:10101000882359F0E091D904F091DA04309729F04F
:101020000190F081E02D0995089580E00895B0E0E9
:10103000A0E0EDE1F8E00C94B91F6C017B0164E6DF
:1010400070E088E70E94F61CEC0197FD12C010E0EA
:1010500000E0F601E00FF11F849164E670E00E9469
:10106000641DEC01892B29F40F5F1F4F0E151F051E
:1010700081F70E94DB1DCE01CDB7DEB7E8E00C940E
:10108000D51F8091D5049091D604911103C091E0B1
:1010900089270895882369F062E070E08EEA92E083
:1010A0000E941708892B19F08091D5040895109299
:1010B000D5048091D504EBCFCF93C091D504809116
:1010C000D6048823D1F00E94C303605A75418F4F24
:1010D0009F4F6093D1047093D2048093D304909374
:1010E000D404C11108C062E070E08CEA92E00E9472
:1010F0001708892B29F0C091D5048C2FCF91089522
:1011000081E08093D504F7CFCF9384E090E00E94F4
:101110007920C82F82E290E00E947920982F8C2FAE
:10112000CF910895A4E0B0E0E8E9F8E00C94BD1F89
:1011300040913D0250913E0260913F027091400209
:101140002FB7F8948091DE049091DF04A091E00421
:10115000B091E1042FBF841B950BA60BB70B11E0D8
:1011600084369105A105B10590F10E94E30788231B
:1011700099F10E94C3036E5F7F4F8F4F9F4F69832A
:101180007A838B839C8380911101909112018D5CF5
:101190009D4F4091100150E04530510510F044E062
:1011A00050E0BE016F5F7F4F0E94702082E090E0B0
:1011B0000E94251F182F882351F00E94C3036093BB
:1011C0003D0270933E0280933F0290934002812F34
:1011D0002496E4E00C94D91F0E94C30300914202BC
:1011E000109143022091440230914502600F711F1B
:1011F000821F931FC0CFEF92FF921F93CF93DF9375
:1012000000D000D000D0CDB7DEB77B0190E080E009
:101210000E94251F182F882309F480C040910301E4
:1012200050E04115510511F041E050E0609104019A
:10123000709105016D5C7D4FCE0106960E94702075
:1012400040912F0250913002609131027091320230
:101250002FB7F8948091DE049091DF04A091E00410
:10126000B091E1042FBF841B950BA60BB70B8436FE
:101270009105A105B10540F484E392E00E942302A8
:101280009E81891709F44AC081E090E00E94251FE1
:10129000811116C010E085E0EAE2F2E0D70101908A
:1012A0000D928A95E1F7812F26960FB6F894DEBF4E
:1012B0000FBECDBFDF91CF911F91FF90EF900895AA
:1012C00040910B0150E04630510510F045E050E0F0
:1012D00060910C0170910D016D5C7D4FCE01019606
:1012E0000E94702084E392E00E9423029E81891371
:1012F000D1CF0E94C30360932F027093300280937A
:1013000031029093320285E0FE013196AAE2B2E00A
:1013100001900D928A95E1F711E0BDCF85E0E4E3FD
:10132000F2E0DE01119601900D928A95E1F711111C
:10133000EACFB1CF8091190290911802892B809346
:10134000760190911A029923A1F0892B809376015E
:1013500080912D018823E1F18091E20487FF38C05C
:101360008EE1E8E7F1E090E08150A0F591110E9454
:101370004E0640E250E068EF71E086E791E00E949F
:101380006320892B21F180E2E6E7F1E0A8EFB1E0EC
:1013900001900D928A95E1F7E091D904F091DA0479
:1013A0003097A9F080912D01882359F08091E204B3
:1013B00087FF07C0809176018093770186E0809354
:1013C00076010280F381E02D86E791E0099508958A
:1013D00086E0C7CF2191222339F29F5FC5CF90E0ED
:1013E00080E00E94440490E080E00E942E0410926D
:1013F00018020E949A090895609352027093530252
:1014000080935402909355020E94EF0908950F9320
:101410001F9341E050E060E070E004C0440F551FAE
:10142000661F771F8A95D2F7CB01BA016095709538
:101430008095909500915202109153022091540290
:101440003091550260237123822393230E94FC096B
:101450001F910F9108959091F701809589238093B2
:10146000F701282F277091F4282F082E000C330B3A
:101470009217130659F09091E30492FF07C08595E7
:10148000859585950E94070A1092F70108950F939C
:101490001F9341E050E060E070E004C0440F551F2E
:1014A000661F771F8A95D2F780915202909153025E
:1014B000A0915402B09155028A019B01082B192B6F
:1014C0002A2B3B2BC901B8010E94FC091F910F91E7
:1014D000089560931B0270931C0280931D029093E9
:1014E0001E020E94EF0908951092190280912D01A9
:1014F000E8E7F1E0882361F08091E20487FF08C00B
:101500008EE1DF011D928A95E9F70E94EF090895A7
:1015100086E0F7CFAAE2B0E0E0E9FAE00C94BE1F63
:101520008EE095E02091F100FC012193CF01F5E0E0
:1015300086319F07B9F780910F05833009F470C099
:10154000B8F4813009F447C0823009F4B1C0809109
:10155000E80083FF7EC280910E0590910F059A30BE
:1015600008F077C2E92FF0E0E354FF4D0C943B20E4
:101570008A3009F48CC08B3009F46FC0893039F798
:1015800080910E05813219F7809112059091130513
:101590000297E8F68091E800877F8093E8008091C9
:1015A000E80082FF38C09091F3008091F20002972A
:1015B00031F48091F100813011F0863021F4809176
:1015C000F1008093E9048091E8008B778093E80034
:1015D0000E94B402BCCF80910E05813A09F0B7CFCA
:1015E0008091E800877F8093E800809112059091B8
:1015F0001305892B61F460E28AEE94E070E00E94AA
:1016000060038091E8008B778093E800A0CF60E0D2
:1016100090E080E0F3CF80910C058111C0CF97CF8F
:1016200080910E05813A09F092CF80911205909138
:101630001305892B09F08BCF8091E800877F809379
:10164000E8008091E80080FFFCCF80912D0180931D
:10165000F1008091E8008E77B9CF80910E0581323C
:1016600009F075CF8091120590911305892B09F02F
:101670006ECF8091E800877F8093E8000E94B402DB
:101680008091100580932D010E94740A60CF809193
:101690000E05813209F05BCF8091E800877F80934F
:1016A000E8000E94B402809111058093E8044FCFB6
:1016B00080910E05813A09F04ACF8091E800877F3A
:1016C0008093E8008091E80080FFFCCF8091E804DF
:1016D000BECF803899F0823809F0BBC180911205E5
:1016E0008F70873008F0B5C18093E9008091EB00DE
:1016F00085FB882780F91092E90006C080910A05D1
:1017000090910B05911182609091E800977F9093E2
:10171000E8008093F1001092F1008091E8008E774C
:1017200094C1882309F482C1823009F092C180916A
:101730001005811185C1809112058F702FEF280F40
:10174000263008F086C18093E9002091EB0020FF4D
:1017500077C1933031F48091EB0080628093EB008D
:101760006FC19091EB0090619093EB0021E030E02D
:1017700001C0220F8A95EAF72093EA001092EA004E
:101780008091EB008860EACF811163C11091100550
:101790001F778091E3008078812B8093E300809114
:1017A000E800877F8093E8000E94B4028091E800FF
:1017B00080FFFCCF8091E30080688093E30082E0AB
:1017C000111183E080930C0544C18058823008F0E9
:1017D00040C180911005909111058C3D23E0920746
:1017E000A1F583E08A838AE289834FB7F894DE010A
:1017F000139620E03EE051E2E32FF0E050935700D3
:10180000E49120FF03C0E295EF703F5FEF708E2FF1
:1018100090E0EA30C0F0C7968D939D932F5F2431FE
:1018200059F74FBF8091E800877F8093E8006AE214
:1018300070E0CE0101960E9460038091E8008B77F2
:101840008093E80006C1C096E7CF40911205509101
:101850001305292F33272330310509F444C078F5C7
:101860002130310509F46FC08BE390E0EDE5F3E042
:101870002230310509F0EDC02091E800277F209348
:10188000E80020911405309115058217930708F49C
:101890009C0140E02115310509F064C0411162C08E
:1018A0008091E80082FDC9CF80910C05882329F240
:1018B000853019F28091E80083FFF2CFBECF21324C
:1018C0003105A9F12232310509F0C3C04115510596
:1018D00009F443C04130510509F0BBC08DE690E0EA
:1018E000E0EBF2E0C9CF992781309105C1F0009774
:1018F00059F0029709F0ADC0EAEAF3E0E4918E2FC7
:1019000090E0EAEAF3E007C0E4E0F4E0E4918E2F2F
:1019100090E0E4E0F4E0009709F49BC0ADCFE2EF83
:10192000F3E0E4918E2F90E0E2EFF3E0F4CF411585
:10193000510571F04130510509F08BC089E090E00C
:10194000E8E8F3E099CF82E190E0E8E9F3E094CFB2
:1019500089E090E0EFE6F3E08FCF80E490E0EDE106
:10196000F3E08ACF80910C05882309F466CF853097
:1019700009F463CF8091E80083FD5FCF8091E80098
:1019800082FD8ECF8091E80080FF84CF9091F3009C
:101990008091F2002115310519F08830910550F041
:1019A00041E0089709F040E08091E8008E7780934D
:1019B000E80070CF44914093F100319621503109F5
:1019C0000196E8CF803809F044C08091E800877F15
:1019D0008093E80080910D058093F1009ECE8111E7
:1019E00038C0109110051230A0F58091E800877F73
:1019F0008093E80010930D050E94B402112311F0AA
:101A000084E005C08091E30087FDFACF81E08093F8
:101A10000C0542E061EC81E00E94D30242E261ECFD
:101A200082E00E94D30280910C0513C080911005C2
:101A3000813079F481E0933009F080E080930B05E8
:101A40001092E9008091E800877F8093E8000E946F
:101A5000B4028091E80083FF0AC08091E800877F8C
:101A60008093E8008091EB0080628093EB00AA965F
:101A7000E3E00C94DA1F0E94740A2FEF84E39CE0E9
:101A8000215080409040E1F700C0000088E19AE0DA
:101A90000FB6F894A895809360000FBE90936000F5
:101AA000FFCF882321F00E9454060E949A090895CE
:101AB000882339F090911902982B909319020E9473
:101AC0009A090895882351F19CEF980F913A40F4B8
:101AD000682F86E791E00E94CF030E949A0908953B
:101AE00090E2980F983050F4877091E001C0990F00
:101AF0008A95EAF7892F0E945406EFCF9BE5980F4D
:101B0000933028F490E080E00E9444040895885ABD
:101B1000873120F490E080E00E942E040895CF9356
:101B2000C82F8823D9F18CEF8C0F813AC8F58091AA
:101B30002D01882311F18091E20487FF1EC0EC2F54
:101B4000E695E695E695F0E0EA58FE4F828190E052
:101B50004C2F477021E030E002C0220F331F4A951E
:101B6000E2F782239323892B91F06C2F86E791E093
:101B70000E94CF030E949A090AC0E8E7F1E08EE7CD
:101B800091E02191C21789F38E179F07D1F76C2F2F
:101B900086E791E00E94F9030E949A09CF91089587
:101BA00080E28C0F883068F4C77021E030E001C01B
:101BB000220FCA95EAF780911902822B80931902AD
:101BC000EBCFEBE5EC0FE33040F4F0E0E25DFE4FED
:101BD000808190E00E944404E1CFC85AC731F0F6FA
:101BE000EC2FF0E0EE0FFF1FEF5CFE4F8081918144
:101BF0000E942E04D3CF68EE7EEF90E080E00E943A
:101C0000A52060E082E090E00E94872060E083E011
:101C100090E00E94872010921B0210921C021092EA
:101C20001D0210921E0260E084E090E00E94872076
:101C300064E082E290E00E94872060E085E090E02E
:101C40000E94872060E086E090E00E9487206FEF8E
:101C500087E090E00E94872040E050E0BA0188E0F1
:101C600090E00E94992060E08DE090E00E94872043
:101C700040E050E0BA0188E190E00E94992060E0E5
:101C800087E190E00E94872040E050E0BA018CE1BB
:101C900090E00E94992070E060E080E290E00E9475
:101CA000A52040E050E0BA0188E190E00E94992030
:101CB00040E050E0BA018FE090E00E94992040E0BF
:101CC00050E0BA0183E190E00E9499200895CF93FB
:101CD000C091E304C2FB992790F9981791F080FB1B
:101CE000C2F9C093E3046091E20484E090E00E94B2
:101CF00087206C2F82E290E00E94872082E00E9481
:101D00002B0ACF9108951F920F920FB60F921124B4
:101D10002F933F934F935F936F937F938F939F93F3
:101D2000AF93BF93CF93DF93EF93FF93D091E900ED
:101D3000DF708091EC00C82FC17080FDC0E8109268
:101D4000E9008091F000877F8093F00078940E94F2
:101D50008A0A1092E9008091F00088608093F00078
:101D6000CD2BCF70C093E900FF91EF91DF91CF9120
:101D7000BF91AF919F918F917F916F915F914F91A3
:101D80003F912F910F900FBE0F901F9018951F92AB
:101D90000F920FB60F9211242F933F934F935F939F
:101DA0006F937F938F939F93AF93BF93EF93FF9323
:101DB0008091E10082FF09C08091E20082FF05C0AE
:101DC0008091E1008B7F8093E1008091DA0080FFB9
:101DD00024C08091D80080FF20C08091DA008E7FDF
:101DE0008093DA008091D90080FF9DC080E189BD99
:101DF00082E189BD09B400FEFDCF81E080930C052E
:101E00008091E704811109C00E943A020E940503F3
:101E10008091E20084608093E2008091E10080FF85
:101E200017C08091E20080FF13C08091E2008E7F96
:101E30008093E2008091E20080618093E2008091D3
:101E4000D80080628093D80019BC85E080930C058F
:101E50008091E10084FF2BC08091E20084FF27C0C5
:101E600080E189BD82E189BD89B5982F917080FF9D
:101E7000FBCF8091D8008F7D8093D8008091E100C6
:101E80008F7E8093E1008091E2008F7E8093E2005C
:101E90008091E20081608093E20080910D058823AB
:101EA00009F447C084E080930C0580910C05809173
:101EB000E10083FF27C08091E20083FF23C080916F
:101EC000E100877F8093E10082E080930C0510920F
:101ED0000D058091E1008E7F8093E1008091E2000A
:101EE0008E7F8093E2008091E20080618093E20027
:101EF00042E060E080E00E94D3028091F0008860C0
:101F00008093F000FF91EF91BF91AF919F918F91DE
:101F10007F916F915F914F913F912F910F900FBEE5
:101F20000F901F90189519BC10920C051092E704A1
:101F300074CF8091E30087FD93E090930C05B5CFBB
:101F400078941F921FB61F9211248F939F93AF9383
:101F5000BF938091DE049091DF04A091E004B091E2
:101F6000E1040196A11DB11D8093DE049093DF046E
:101F7000A093E004B093E104BF91AF919F918F9142
:101F80001F901FBE1F9018959C014FB7F894809129
:101F9000DE049091DF04A091E004B091E1044FBF12
:101FA000821B930B08952FB7F8948091DE049091D3
:101FB000DF04A091E004B091E1042FBF08950F93D6
:101FC0001F93CF93DF93C62FD42F022FFC01828162
:101FD0008823A9F0609318050E94D30F90931705EA
:101FE00080931605C77081E001C0880FCA95EAF793
:101FF0000E94580DDF91CF911F910F91089580910C
:102000001805681335C080911605909117050E9438
:10201000C40F8436910560F510E21D0FCD17B9F09D
:1020200080E28C0F883040F4C77081E001C0880FD7
:10203000CA95EAF70E94510D183048F481E09D2FAF
:10204000977001C0880F9A95EAF70E94580D802F6B
:102050000E948F0D802F0E94620D183058F6D770A5
:1020600081E001C0880FDA95EAF70E94510DC2CFD6
:10207000C77081E001C0880FCA95EAF7F6CFA5E0E6
:10208000B0E0E5E4F0E10C94B11F7C01FC01838138
:102090009481892B31F08081918189238F3F09F0D0
:1020A0001FC52596E0E10C94CD1F0E946506182FF0
:1020B000682F89819A810E94E30669817A81812F44
:1020C0000E94B6048C01F7012281222309F4D5C4B1
:1020D00090568115F0E29F0750F0905E811530E137
:1020E000930728F0915C81159F4108F046C0C80114
:1020F0009927AC01445051094432510518F08B978F
:102100000E9780F4E0917202F0E0EE0FFF1FE958A5
:10211000FD4F808191818F3F3FE7930719F0019632
:1021200091838083043FFCE51F07A1F108F04EC4B2
:10213000093D8CE5180751F10A3D9CE51907B1F1FD
:10214000083DECE51E0709F04DC426E241EE61EEC4
:10215000C7010E94DF0F8091F701877009F4A1CFBA
:10216000F7018281882309F49CCF8091E30482FFE8
:1021700098CF82E00E942B0A94CF90E080E00F3F3E
:10218000110511F008F0B5CFC801B3CF27E245EE35
:1021900065EEDECF26E241EE60EEDACF27E245EED5
:1021A00064EED6CF26E241EE62EED2CF28E241E0E5
:1021B000EFCF0236EDE51E0709F425C4063AFDE52A
:1021C0001F0709F420C40631ECE51E0709F005C11C
:1021D000222309F46CC4809119028A7A91E009F4EF
:1021E00090E09093960169E2811165E386E791E0C2
:1021F0000E94F9030E949A09AECF8091E2048062A6
:102200000730ECE51E0709F49DC08091E20480616F
:102210000830FCE51F0708F495C08091E204806453
:1022200091C08091E2048B7F0D302CE5120709F4F8
:1022300089C088F40B308CE5180709F498C08091A8
:10224000E2048C600C309CE5190708F47BC0809197
:10225000E2048D7F77C08091E2048F7E0F30ECE541
:102260001E0709F46FC08091E204877F0031FCE50E
:102270001F0708F467C08091E2048F7D63C00E3FA2
:102280002CE5120709F47BC058F505318CE51807D9
:1022900009F483C098F48091E204837F0331ECE574
:1022A0001E0709F44FC008F472C00E94740A90918E
:1022B000E204892F97FB87F9805844C00C3F2CE536
:1022C000120709F44AC008F056C00B3F8CE5180706
:1022D00009F0C3C38091E30481608093E304BDC32C
:1022E00002309DE5190709F464C0C0F48091E3044D
:1022F0008C7F0115FDE51F0781F38091E304836066
:1023000001302DE5120748F38091E304982F909552
:1023100091708E7F892B90FB81F9DFCF02363DE5EE
:10232000130709F44CC0063A8DE5180709F44EC0AE
:1023300003309DE5190709F090C360E03BC0809130
:10234000E20482608093E20488C38091E2048460A6
:10235000F9CF8091E2048860F5CF8091E304826038
:10236000BCCF0E94740A8091E2048068EBCF809118
:10237000E2048E7FE7CF8091E3048E7FAECF809121
:10238000E3048D7FAACF8091E2048F7BDBCF0E9494
:10239000740A8091E2048F77D5CF8091E20482FBAA
:1023A000992790F921E0922790FB82F990FB83F91D
:1023B000C9CF61E08EE090E00E9487204EC39091EB
:1023C000E204892F8F7E94FF8061BCCF9091E2045C
:1023D000892F8E7F90FF8160B5CF222381F00B354E
:1023E000FDE51F0709F487C008F051C001153CE561
:1023F000130709F457C00F3D1C4509F46FC0F701DE
:10240000828100811181882309F479C0C8010E946A
:102410006506D82E682FC8010E94E306B8018D2DED
:102420000E94B6040E94D1048C01882EF701D2804C
:10243000958092943FE093228091F7018770C1F0DC
:10244000BD2CDD20B1F0812F807F803421F080E22F
:10245000800F883068F08091E30482FF09C082E039
:102460000E942B0A8091F7018770BB24B3948111DD
:10247000B12CA12EA2942FE0A222FBE0FA1508F4C1
:10248000AAC0EA2DF0E0E953FF4D0C943B200D3536
:102490009DE5190731F188F1083A1D4509F0AFCFE4
:1024A0000E943B0D0E94740A2FEF34E38CE0215010
:1024B00030408040E1F700C0000087E797E7909345
:1024C00001088093000888E19AE00FB6F894A89577
:1024D000809360000FBE90936000FFCF0E94FB0DC1
:1024E000DFCF8091E30482FB882780F991E0892780
:1024F0000E94670E84CF81E0FBCF80E0F9CFC80156
:102500000E94AE06D82E8ACF212F2F70C22E107FA8
:1025100019F0C29490EFC922DD20B9F0CC2069F007
:1025200080E2800F883010F0811009C0809119027C
:10253000C82AC09219020E949A09802F4AC080912D
:102540001802C82AC0921802F6CF802F0E94620D8E
:10255000CC2009F440C0005E083010F0811004C0A7
:102560008C2D0E94540606C0C09480911802C82287
:10257000C09218020E949A092EC0312F3F70C32EBC
:10258000107F103219F0C29480EFC822882089F0A1
:1025900081E0881609F477C0DD2009F481C0992014
:1025A00009F477C0F701858180FFC7CF8F708583DD
:1025B00070C02091E30422FD43C0DD20D9F1CC207E
:1025C00039F080911902C82AC09219020E949A0912
:1025D00080E00E948F0DEA2DE850FF0B349710F435
:1025E0000E940608BB20A9F08091F70180FD11C070
:1025F000F70112828595859585950E94470AC70146
:102600000E943F108091F7018595859585950E94E0
:10261000070A85E0F701DE01119601900D928A9577
:10262000E1F709811A81C8010E94AE06B8010E9433
:10263000B60437CD80E00E94620DCC2061F290CFCD
:10264000DD20A1F090911A02892F8C29911003C0EE
:102650000E94580DC0CFE1E09E12FACF22FFBBCFFF
:10266000981709F4B8CF80931A02B5CF911006C01D
:102670000E944E068C2D0E94510DADCFF1E09F16A9
:1026800009F4A9CFF5CFDD2031F025E0291508F4B4
:10269000A2CF8C2DDDCF34E0391508F49CCFEACFE2
:1026A000992041F3F9E38F128AC12FEF37EE83E0CF
:1026B000215030408040E1F700C0000080C1812FF0
:1026C00086958695837061F0813009F084CFC801CA
:1026D0009370D11002C090E080E00E942E047BCF66
:1026E000C8019370D11002C090E080E00E944404C1
:1026F00072CF812F837009F066C0D1106CCF802F0C
:10270000829586958770880F880F602F6F70462E90
:10271000512C712C612C082E04C0440C551C661CD5
:10272000771C0A94D2F740E050E0BA0104FF0FC0D2
:102730004FE050E060E070E004C0440F551F661F9A
:10274000771F8A95D2F74095509560957095812FA7
:10275000869586958370823019F1D8F400911B021A
:1027600010911C0220911D0230911E02813069F0EF
:102770004429552966297729CB01BA0160237123A1
:10278000822393230E94690A26CF402A512A622A73
:10279000732ACB01BA016429752986299729F2CFBA
:1027A000442955296629772900911B0210911C02A2
:1027B00020911D0230911E02CB01BA0160277127C2
:1027C00082279327DFCF8695DD2011F0812F81703E
:1027D000882309F400CF802F829586958770880F13
:1027E000880F602F6F70462E512C712C612C082E93
:1027F00004C0440C551C661C771C0A94D2F740E0B8
:1028000050E0BA0104FF0FC04FE050E060E070E01C
:1028100004C0440F551F661F771F8A95D2F7409555
:10282000509560957095812F86958695837082303E
:1028300019F1D8F4009152021091530220915402E0
:1028400030915502813069F044295529662977294C
:10285000CB01BA0160237123822393230E94FC09D8
:10286000BACE402A512A622A732ACB01BA016429BE
:10287000752986299729F2CF442955296629772970
:10288000009152021091530220915402309155024E
:10289000CB01BA016027712782279327DFCF1F70F2
:1028A000DD2029F0812F0E94470A802FD1CE802F72
:1028B0000E94510D812F0E94070A8DCE802F92EF2A
:1028C000891609F43FC0981570F0E0EF8E16D1F02C
:1028D000F1EF8F1691F0DD2009F46CC091102DCE30
:1028E000812F8F7133C023EF821699F134EF831259
:1028F000F2CF8091E30482FD3FC0812F8F71DD20F4
:10290000D1F224C0DD20C9F084E0891508F463CE3B
:102910001F7161E070E080E090E004C0660F771FF7
:10292000881F991F1A95D2F70091520210915302F5
:102930002091540230915502ADCF95E0991508F4DD
:102940004ACEE6CF812F8F71D110B5CF0E94470AB2
:1029500042CE60E070E0CB01DD2009F47FCF1F7133
:1029600061E070E080E090E004C0660F771F881F90
:10297000991F1A95D2F772CFDD2089F01F71812F30
:102980000E94470A8091E30482FF07C0E8E01E9F8F
:10299000C001112483608093F701812FD7CF81E09C
:1029A0000E942B0AF1E0F91508F015CE82E00E9492
:1029B0002B0A11CE992039F0893309F476CE802F75
:1029C0000E94620D08CE812F8F7175CF063FFCE506
:1029D0001F0709F4E7CB08F4E1CB073F8CE51807A4
:1029E00009F47AC01092180504308DE5180708F034
:1029F000E0CB0B3F9CE5190730F4C80182509C45A1
:102A0000449708F0E0CB0E9484089093E3048093FD
:102A1000E20401313CE5130709F4B5CC08F02FCCF2
:102A200009309CE5190709F49CCC08F0FACB053075
:102A3000FCE51F0709F48DCC08F0DFCB03303CE543
:102A4000130709F47CCC08F080CC8091E20481600B
:102A500002309CE5190709F475CC6091E2041091ED
:102A6000E30484E090E00E948720612F82E290E0FE
:102A70000E9487200E94740A6ECB043F9CE51907D0
:102A800009F488CBF0F4093DFCE51F0709F47ECB7F
:102A90000A3D2CE5120709F489CB083D3CE51307F4
:102AA00009F453CB06312CE5120709F0A8CC80912C
:102AB000960169E2811165E386E791E00E94CF0308
:102AC00099CB063F8CE5180709F46CCB08F466CB6C
:102AD000073FECE51E0731F727E245EE66EE38CBFF
:102AE00085E0DE01119601900D928A95E1F7F701DC
:102AF000228189819A812111D8CA0E94AE06182F9D
:102B0000DCCA1F93CF93DF938091C401807F09F0CB
:102B100049C08091C101882309F444C08091F60125
:102B2000D091C5016091BF017091C001A091C20117
:102B3000B091C301C62FC72316E0D81799F190E0D2
:102B4000109711F0CF3F19F401968770F6CF189FB8
:102B50009001199F300D1124F901EA53FE4F418174
:102B60004713F2CF40814613EFCF42814111ECCFA2
:102B7000438154814A1B5B0B4436510528F78091F1
:102B8000C4018F7080618093C401F901E553FE4F49
:102B900080818F70806180838FEB91E00E943F1075
:102BA0000E945B06DF91CF911F910895A1E1B0E0F3
:102BB000ECEDF5E10C94B71F8C0185E0F801DE0126
:102BC0001D9601900D928A95E1F7F801E2808FEB56
:102BD000A82E81E0B82E6091C2017091C3016115E9
:102BE000710509F416C19091BF014091C001892F70
:102BF00084238F3F09F40DC120813181C380D480AB
:102C0000F090C101F601E61BF70BFF2009F4E8C0C4
:102C10008091C401582F507FE436F10508F0ABC015
:102C200051116BC0FE2C431314C0921312C0E1105B
:102C300010C08F7080618093C401C5010E943F1055
:102C40008091C401F80185838F2D6196EAE00C9490
:102C5000D31FC114D10429F0822F83238F3F09F0A1
:102C6000F3C080E0F82FF170DF2E80FF3CC0809130
:102C7000F6014091C50156E0841315C02D873E87AB
:102C80008D859E850E94A106292F22952F702230C6
:102C9000F0F0243018F59F70F1F0F8019581907FE5
:102CA000D1F4D12C1EC090E0589FF001599FF00D37
:102CB0001124EA53FE4F6181361306C0608126134A
:102CC00003C06281E6120FC001968770D5CF9F7056
:102CD00011F0882331F3805E883018F3C8010E9418
:102CE0003F10FD2CB1CFEE2009F4AECF8091C4018E
:102CF00081608093C401F12CA7CF431312C09213BB
:102D000010C0E1100EC0F8018583C8010E943F1079
:102D100086E0F801AFEBB1E001900D928A95E1F702
:102D200093CFC8010E941B07882309F1EE20F9F018
:102D30008091C401803270F02091BF013091C001B8
:102D400038872F831986DB86CA868C87CE01079643
:102D50000E943F1086E0F801AFEBB1E001900D92C8
:102D60008A95E1F70E948115FF24F3946DCFC80185
:102D70000E943F10F9CF51110AC08FEB91E00E94E1
:102D80003F1086E0F50111928A95E9F7B4CF43131D
:102D90000FC092130DC0E1100BC0F8018583C8016C
:102DA0000E943F1086E0F50111928A95E9F74CCF19
:102DB000C8010E941B078823D1F2EE20C1F2809146
:102DC000C401803238F22091BF013091C0013A83B2
:102DD00029831B82DD82CC828E83CE010196B8CFFF
:102DE000E436F105F8F6FE2CEE2009F2431303C099
:102DF000921709F48DCFC8010E941B078111AACF39
:102E00008091C40181608093C401C8010E943F1079
:102E10001BCFEE2009F4ABCFC8010E941B07F82E90
:102E2000882309F4A4CF86E0F801AFEBB1E001906C
:102E30000D928A95E1F78091BF019091C0010E94A7
:102E4000A1060E94811500CF81E08E250BCFA7E15E
:102E5000B0E0EDE2F7E10C94BE1F4B8B5C8B6D8B09
:102E60007E8B8F8B6111109218021A8A198A85E065
:102E7000FE017396DE011D9601900D928A95E1F791
:102E800086E0FE013D96DE01179601900D928A952F
:102E9000E1F7CE0107960E94D615882359F016E077
:102EA0008091F6019091C501891343C06796E3E0D4
:102EB0000C94DA1F86E0FE013796DE011196019030
:102EC0000D928A95E1F78A859B85892B41F38F8145
:102ED000988589238F3F19F32091C50130E0C901FE
:102EE0000196877099274091F6014817190671F4E9
:102EF0000E94740A1092C5011092F60186E0EFEB71
:102F0000F1E0DF011D928A95E9F7C9CF96E0929F23
:102F1000D001939FB00D1124AA53BE4FFE013196EC
:102F200001900D929A95E1F78093C5010E945B068E
:102F3000B6CF819FC00111248A539E4F0E94D6159F
:102F4000882309F4B3CF8091F60190E00196877051
:102F500099278093F601A4CFAFE0B0E0E2EBF7E170
:102F60000C94B41F8E010F5F1F4F8AE0D8011D9291
:102F70008A95E9F781E6C82E81E0D82EF12CE12C64
:102F8000AA24A394B12C2CE6822E21E0922EF601E5
:102F900081916F018F3F09F442C0F894E82FE295C8
:102FA000EF70F0E021A18F70A50102C0440F551F02
:102FB0008A95E2F7CA01922F982B91A392A180954E
:102FC000892382A3789400C0E6E6F1E0712C31E019
:102FD00021912F3F09F46BC0A22FA295AF70B0E0F2
:102FE00090968C9190E02F7002C0959587952A95C8
:102FF000E2F780FD5CC0832F782A330F8E169F0680
:1030000039F7F601319780818F3F11F00E945C04FF
:1030100050EA5A95F1F7F801EE0DFF1D70828FEF1F
:10302000E81AF80AA5E0EA16F10409F0B0CF4AE080
:1030300050E0B80186E492E00E9463207C01892B75
:1030400041F08AE0F801A6E4B2E001900D928A9581
:10305000E1F710915102E114F10459F181E08093FC
:1030600021020E94D30F9093200280931F0280912F
:103070001F02909120020E94C40F059778F0A6E4E9
:10308000B2E0E12FF0E0EA5AFD4F8BE492E02D919F
:1030900021938A179B07D9F71092210281E090E0D3
:1030A000E114F10451F02F96EDE00C94D01F80E074
:1030B000A3CF809121028111DACF0E94E307F82E7D
:1030C000E0915102882309F468C06E01BBE0CB0E89
:1030D000D11C85E0D6011D928A95E9F70E2F10E0EC
:1030E0000A5A1D4F809141028A3020F54BEF58E07B
:1030F000B601C8010E94B007882359F142E958E09F
:10310000B601C8010E94B007882319F1109241024C
:103110008091500290E045E050E0B6018A5A9D4F00
:103120000E94632021E020932802892B49F5F12C8D
:103130008F2DB9CF80912202909123020E94C40F5B
:10314000843F914098F680912802811112C080E05E
:10315000AACF809141028F3F29F08F5F8093410277
:103160008A30B0F20E94D30F909323028093220200
:10317000EACF85E0F60111928A95E9F710922802CC
:10318000A0915002B0E0AA5ABD4F85E0FE013B96E7
:1031900001900D928A95E1F7CBCFF0E0EA5AFD4F0E
:1031A00085E0A4E3B2E001900D928A95E1F784E313
:1031B00092E00E94230280933302C0903902D090A3
:1031C0003A02E0903B02F0903C0280912402909100
:1031D0002502A0912602B0912702C816D906EA0658
:1031E000FB0609F4B4CFC0922402D0922502E092EB
:1031F0002602F09227020E94E3078111A8CF0E94C5
:10320000C303C61AD70AE80AF90AC0924202D0924A
:103210004302E0924402F092450299CF1F921FB6FA
:103220001F9211248F939F93AF93BF938091DD04DE
:10323000811113C08091DE049091DF04A091E0041D
:10324000B091E1044196A11DB11D8093DE049093DD
:10325000DF04A093E004B093E104BF91AF919F918C
:103260008F911F901FBE1F901895CDB7DEB72D9779
:103270000FB6F894DEBF0FBECDBF85B7806885BF9F
:1032800085B7806885BF84B7877F84BF0FB6F89401
:10329000A895809160008861809360001092600022
:1032A0000FBE80E890E00FB6F89480936100909391
:1032B00061000FBE8AE594E09093750180937401DC
:1032C0000E943A020E9405038091E200846080938C
:1032D000E200789480910C058823A1F01091E90018
:1032E0001F709091EC00892F817090FD80E8182B61
:1032F0001092E9008091E80083FD0E948A0A1F7005
:103300001093E90082E084BD93E095BD9AEF97BDEC
:1033100080936E0010924202109243021092440277
:10332000109245020E94E307809318010E94E30770
:1033300081110E94391E809118018091180195E039
:10334000811190E09093510285E0891B8093500297
:1033500001E611E0F6E6EF2EF1E0FF2ED8018D91A7
:103360008D018F3F11F00E945C04E016F106B1F769
:1033700006E611E0ECE6EE2EE1E0FE2EF80181918A
:103380008F018F3F11F00E945C04E016F106B1F747
:103390008AE0E6E5F2E0DF01282F1D922A95E9F7A1
:1033A000E6E4F2E0DF011D928A95E9F790E080E023
:1033B0000E948120883E9E4F11F00E94FB0D82E00A
:1033C00090E00E947920809360020E94840890938C
:1033D000E3048093E20483E090E00E947920682F68
:1033E00070E090E080E00E94690A1092CA0480E8D0
:1033F0008093A9020E94F01C6DE070E08FE992E0DA
:103400000E941708892BC9F58091CA0463E070E017
:1034100081FD93C18CE992E00E941708892B69F520
:103420006DE070E08CE892E00E941708892B29F586
:103430000E94C303605A75418F4F9F4F6093D10420
:103440007093D2048093D3049093D404EAECF2E016
:1034500080E092E0DF019C011D9221503040E1F7B5
:103460008FEF9FEF9093CD048093CC0481E0809305
:10347000D6048093D5041092CB040E94E3078111F7
:1034800002C00E943C1E89E191E09093DA0480938F
:10349000D90474E6872E912CA12CB12C80910C05B7
:1034A00000E112E1853009F485C10E94AC178B87D9
:1034B00081110E94C303A6E5B2E0E1E6F2E010E06C
:1034C00000E0702EDD9081918D1509F482C18D256B
:1034D000C12CEE24E394982F9E2109F475C10E941B
:1034E000E307882399F0C9827A82DE2081E009F41B
:1034F00080E08B830E94D30F8160782F9D838C8323
:1035000049815A816B818D810E942717F801EF59FB
:10351000FD4F8081E826E0820E94E307882309F4BA
:10352000C5C04090770250907802052C000C6608C8
:1035300077088091250190E0E7E7F2E021E030E0B4
:103540003296821793070CF05BC1809173029091C1
:103550007402A0917502B09176026FB7F894C09092
:10356000DE04D090DF04E090E004F090E1046FBF4F
:10357000C81AD90AEA0AFB0A1091250189ECC81673
:10358000D104E104F10414F18091720290E00196FB
:1035900069E170E00E94E61F80937202880F991F14
:1035A000FC01E958FD4F11821082812F183108F07B
:1035B00087E18F5F809325010E94C30360937302AC
:1035C00070937402809375029093760292E049168C
:1035D0005104610471040CF420C1A0E6BAEEA30109
:1035E00092010E9441202B013C01A8EC1A9F9001FE
:1035F0001124032E000C440B550B2C0D3D1D4E1DAC
:103600005F1DA5E0B0E00E9441209B01AC01C30119
:10361000B2010E94FA1F69017A01B1EFCB16D10401
:10362000E104F1042CF050EFC52ED12CE12CF12C4B
:1036300080916E0290916F02A0917002B091710220
:103640002FB7F8944090DE045090DF046090E004BF
:103650007090E1042FBF481A590A6A0A7B0AE5E60E
:103660004E1651046104710484F00E94C3036093F8
:103670006E0270936F02809370029093710280913A
:103680006D0280936C02C0926B0210916C02A0914B
:103690006B02A11BBB0BA30192010E944C20A50150
:1036A00094010E941C20120F10936D028091D60489
:1036B0008823A9F18091CE049091CF040E94C40F79
:1036C000C29730F00E94D30F9093CF048093CE0422
:1036D0002091CC043091CD042115310539F0809131
:1036E000CB0461E070E0882309F49CC08091D5048C
:1036F0008823A9F00E94C3030091D1041091D20441
:103700002091D3043091D404601B710B820B930B76
:103710006F3F7F4F8F4F9F4710F40E9441088B856A
:1037200081110E945C080E9406089091D0048917BC
:1037300009F4B4CE8093D004B1CE89E992E06CCE86
:1037400080910C05843031F10E9441081092DD0413
:1037500088E190E0A0E40FB6F894A895809360000B
:103760000FBEA093600083B7817F846083BF83B75F
:10377000816083BF7894889583B78E7F83BF0FB6AF
:10378000F894A89580916000886180936000109201
:1037900060000FBE80910B05882361F00E94AC177A
:1037A000E6E5F2E08191811105C120E632E02E17B5
:1037B0003F07C1F780910C05853009F4C1CF0E9405
:1037C000740A0E94060871CEC394EE0C36E0C31250
:1037D00082CE0F5F1F4F0A30110509F072CE8FEFB6
:1037E0008E838F8318860E94D30F8160782F9A87EB
:1037F00089874E815F8168858A850E9427178CCED4
:1038000040815181052E000C660B770B440E551E2E
:10381000661E771E2F5F3F4F93CEC12CD12C7601B1
:1038200007CF8F5F082F10E02B01082E02C0440C39
:10383000551C0A94E2F7A90144215521452B89F32F
:103840009091CA0490FD44C08295880F8076809341
:1038500028019801369527953695279520932B01B9
:10386000815E8093290110922C0124E630E047E02C
:1038700050E066E271E088E70E94931D892B09F011
:1038800035CFA80195E0440F551F9A95E1F7809137
:10389000CA0480FD2BC046535D4F04E610E020E2D1
:1038A00030E060E488E70E94B41D892B09F01ECF48
:1038B0000E945C08C201809590954090CC04509085
:1038C000CD04482259225092CD044092CC040ECF10
:1038D000880F880F880F8093280110922B01895F31
:1038E0008093290183E080932C01BFCFEAEAF2E0C4
:1038F00080E2DF011D928A95E9F7E0E7F1E0FD87BC
:10390000EC876CE671E087E0F82EAC85BD852D91E3
:10391000BD87AC87FB012190BF01240E352E311CE1
:10392000C10186539D4F1C01E22FF0E0E655FD4F8B
:1039300090E080E06F2C681AEE24E394082E01C01A
:10394000EE0C0A94EAF7610100E0D6011D916D01C9
:103950001E21262D201B2770722E022E000C330BE9
:10396000B12F01C0BB0F7A94EAF77B2E31952195D8
:1039700031092770332701C016952A95EAF7712A75
:103980001081712A70820F5F0830F9F60196319626
:103990008830910579F6E4E7F1E02C853D85E21762
:1039A000F30709F0B2CF04E610E020E230E04AEA83
:1039B00052E077CF09BD19BD09B400FEFDCF80915B
:1039C000D8008F7D8093D8008091E0008260809342
:1039D000E0008091E00081FDFCCF0E94740AEACEF5
:1039E0001092B9008CE08093B8000895B0E0A0E098
:1039F000ECEFFCE10C94B61FB82EEB010E94D30F44
:103A00006C01EE24E394F12CC431D10560F025E083
:103A1000E22EF12CCF3FDC0731F0CE0164E170E003
:103A20000E949B1F7B0184EAA82E94E8992E109295
:103A3000BC00A092BC000E94D30F8C018091BC00FE
:103A400087FF0DC08091B900887F883001F1809197
:103A5000B900887F8031D9F00FEF1FEF09C00E94B5
:103A6000D30F801B910B8E159F0540F30EEF1FEFB8
:103A7000CF3FDC07E1F2C6010E94C40F8C179D07FF
:103A8000B0F2C801CDB7DEB7EBE00C94D21FB09214
:103A9000BB009092BC000E94D30F8C018091BC00AF
:103AA00087FF0AC08091B900887F883111F0803487
:103AB00099F610E000E0E5CF0E94D30F801B910B38
:103AC0008E159F0558F3D2CF0F931F93CF93DF939B
:103AD000EB018093BB0084E88093BC000E94D30F6D
:103AE0008C018091BC0087FF11C02091B900287F14
:103AF00081E090E0283211F490E080E0919581958A
:103B00009109DF91CF911F910F910895CF3FDC076D
:103B100041F30E94D30F801B910B8C179D0708F374
:103B20008EEF9FEFEECFB0E0A0E0E9E9FDE10C946D
:103B3000B91F6B018A017901B9010E94F61CE601E7
:103B40000C0D1D1DC017D10711F097FF08C024E907
:103B50002093BC00CDB7DEB7E8E00C94D51FB701C9
:103B600089910E94641DEECFB0E0A0E0EAEBFDE198
:103B70000C94B91FC62F6A017901B8010E94F61C86
:103B800097FD0CC0B8018C2F0E94641DE601EC0C5F
:103B9000FD1CCE15DF0511F097FF08C024E9209326
:103BA000BC00CDB7DEB7E8E00C94D51FB801899111
:103BB0000E94641DEECF84E98093BC0008958EE1DD
:103BC0004A9B02C08150E1F74A9BFECF08955A9864
:103BD00080E28A95F1F75A9A0895FC013BE03A9504
:103BE000F1F798E020E080E031E040E14A95F1F71C
:103BF000880F4A9B02C08160232742E04A95F1F773
:103C0000000040E14A95F1F7915079F790E19A95DB
:103C1000F1F799B132E03A95F1F7000040E14A95A9
:103C2000F1F792FB992790F992272081920F9083C8
:103C30000895A1E0B0E0EFE1FEE10C94BB1F198212
:103C40008C017C01E60EF11C0E151F0541F481E08C
:103C50009981911180E02196E6E00C94D71F0E9493
:103C6000DF1DCE0101960E94ED1DF80181938F01A9
:103C7000EBCF529A5A9A089552985A9AEA9AE9E6DC
:103C8000F0E080818F7C808308956150770B91E014
:103C900001C0990F6A95EAF720E031E0911108C060
:103CA000222391F05A9A80E28A95F1F75A98089562
:103CB000492F482339F05A9A232740E24A95F1F7D1
:103CC0009695ECCF5A98F9CF5A98EDCFFF920F9373
:103CD0001F93CF93DF93EC018C01060F111DC017CA
:103CE000D10729F4CDB7DEB7E5E00C94D81FF990E1
:103CF0000E94E71D68E08F2D0E94451EF0CF1F92A5
:103D00000F920FB60F9211240F931F932F933F938F
:103D10004F935F936F937F938F939F93AF93BF93D3
:103D2000EF93FF93CF93DF930F92CDB7DEB7198256
:103D30000E94DF1DCE0101960E94ED1D082F069501
:103D400006950695282F22952570902F9570290F9E
:103D5000922F937026952695920F982797708981B8
:103D6000982B09F05CC0043008F059C080E18A95B6
:103D7000F1F75A9A529A82E08A95F1F700C05A9860
:103D800088E0089F80011124D801A050BF4F1696EB
:103D9000ED91FC9117973097A9F060915F017091B8
:103DA000600114962D913C911597260F371F11969F
:103DB0008D919C911297680F791F13964C911397D0
:103DC0008C910995F801E050FF4F6381662351F013
:103DD00020915F013091600184819581820F931F52
:103DE0000E94661E0E94E71D80E18A95F1F75A98AD
:103DF00052985A9A80E18A95F1F7F801E050FF4F06
:103E00006081662351F020915F01309160018181D2
:103E10009281820F931F0E94191E0E94DF1D0F9036
:103E2000DF91CF91FF91EF91BF91AF919F918F91D2
:103E30007F916F915F914F913F912F911F910F91C2
:103E40000F900FBE0F901F9018950F931F93CF9355
:103E5000DF93EC0104970CF04CC0F894529A5A98F6
:103E600085E08A95F1F700009C2F969595708C2F30
:103E70008570980F892F83709695969523E0CC0FC7
:103E8000DD1F2A95E1F7980F8E01092B0E94E71D8F
:103E900000C068E0802F0E94451E80E18A95F1F7FE
:103EA00052985A9A4A9B1EC087E090E04A991CC0DB
:103EB000FE01E050FF4F63816623F9F020915F011E
:103EC0003091600184819581820F931F0E94191E99
:103ED000811113C0529A5A9A7894DF91CF911F9111
:103EE0000F91089500C0DECF019729F4529A5A9A93
:103EF000789480E0F2CF00C0D9CF0E94DF1D80E22D
:103F00008A95F1F75A98529A80E18A95F1F7C05054
:103F1000DF4F6881662351F020915F01309160018D
:103F200089819A81820F931F0E94661E0E94E71D5D
:103F3000789481E0D2CFAA1BBB1B51E107C0AA1F16
:103F4000BB1FA617B70710F0A61BB70B881F991F3A
:103F50005A95A9F780959095BC01CD0108952F92AF
:103F60003F924F925F926F927F928F929F92AF9209
:103F7000BF92CF92DF92EF92FF920F931F93CF9356
:103F8000DF93CDB7DEB7CA1BDB0B0FB6F894DEBFED
:103F90000FBECDBF09942A88398848885F846E8413
:103FA0007D848C849B84AA84B984C884DF80EE805D
:103FB000FD800C811B81AA81B981CE0FD11D0FB666
:103FC000F894DEBF0FBECDBFED01089597FB072E1D
:103FD00016F4009407D077FD09D00E949B1F07FCC0
:103FE00005D03EF4909581959F4F08957095619509
:103FF0007F4F0895A1E21A2EAA1BBB1BFD010DC025
:10400000AA1FBB1FEE1FFF1FA217B307E407F50788
:1040100020F0A21BB30BE40BF50B661F771F881F64
:10402000991F1A9469F760957095809590959B01FA
:10403000AC01BD01CF010895052E97FB1EF400943D
:104040000E94332057FD07D00E94FA1F07FC03D0BF
:104050004EF40C94332050954095309521953F4F68
:104060004F4F5F4F089590958095709561957F4F64
:104070008F4F9F4F0895EE0FFF1F0590F491E02D95
:1040800009940E945420A59F900DB49F900DA49F69
:10409000800D911D11240895B7FF0C9441200E94BA
:1040A0004120821B930B0895A29FB001B39FC001D2
:1040B000A39F700D811D1124911DB29F700D811D54
:1040C0001124911D0895FB01DC0104C08D91019024
:1040D000801921F441505040C8F7881B990B08956E
:1040E000FB01DC0102C001900D9241505040D8F715
:1040F0000895F999FECF92BD81BDF89A992780B5B0
:104100000895A8E1B0E042E050E00C94AD20262FE5
:10411000F999FECF92BD81BDF89A019700B40216BD
:1041200039F01FBA20BD0FB6F894FA9AF99A0FBE6B
:1041300008950396272F0E9488200E948720252F0C
:104140000E948820242F0C9488200196272F0E94FB
:1041500088200C948720DC01CB01FC01F999FECF6B
:1041600006C0F2BDE1BDF89A319600B40D924150FF
:104170005040B8F70895F894FFCF690B910B290DC3
:10418000910B290DC40BE50B290DE20CEF0C8412E9
:104190008412BD12BD125F13EB12EB12EB127913F6
:0641A0004F145E145E14D2
:1041A6000000000100000000000000050100000002
:1041B600040600000000000001C0037007BF036B87
:1041C600076607BE03010021007F220003018182EA
:1041D60083E200E900EA00B500B600B700CD00832F
:1041E60001CC008A019201940121022302240225B6
:1041F60002260227022A02B300B4006F00700033C1
:10420600026697C63435F6F7313332360008101891
:044216001810080074
:00000001FF
